{
  "abi": [
    {
      "type": "function",
      "name": "VALIDATOR_WINDOW",
      "inputs": [],
      "outputs": [
        {
          "name": "",
          "type": "uint256",
          "internalType": "uint256"
        }
      ],
      "stateMutability": "view"
    },
    {
      "type": "function",
      "name": "approve",
      "inputs": [
        {
          "name": "commitmentId",
          "type": "uint256",
          "internalType": "uint256"
        }
      ],
      "outputs": [],
      "stateMutability": "nonpayable"
    },
    {
      "type": "function",
      "name": "canResolveExpired",
      "inputs": [
        {
          "name": "commitmentId",
          "type": "uint256",
          "internalType": "uint256"
        }
      ],
      "outputs": [
        {
          "name": "canResolve",
          "type": "bool",
          "internalType": "bool"
        },
        {
          "name": "reason",
          "type": "uint8",
          "internalType": "uint8"
        }
      ],
      "stateMutability": "view"
    },
    {
      "type": "function",
      "name": "commitmentCounter",
      "inputs": [],
      "outputs": [
        {
          "name": "",
          "type": "uint256",
          "internalType": "uint256"
        }
      ],
      "stateMutability": "view"
    },
    {
      "type": "function",
      "name": "commitments",
      "inputs": [
        {
          "name": "",
          "type": "uint256",
          "internalType": "uint256"
        }
      ],
      "outputs": [
        {
          "name": "creator",
          "type": "address",
          "internalType": "address"
        },
        {
          "name": "validator",
          "type": "address",
          "internalType": "address"
        },
        {
          "name": "charity",
          "type": "address",
          "internalType": "address"
        },
        {
          "name": "token",
          "type": "address",
          "internalType": "address"
        },
        {
          "name": "amount",
          "type": "uint256",
          "internalType": "uint256"
        },
        {
          "name": "deadline",
          "type": "uint256",
          "internalType": "uint256"
        },
        {
          "name": "confirmationTime",
          "type": "uint256",
          "internalType": "uint256"
        },
        {
          "name": "validatorDeadline",
          "type": "uint256",
          "internalType": "uint256"
        },
        {
          "name": "description",
          "type": "string",
          "internalType": "string"
        },
        {
          "name": "status",
          "type": "uint8",
          "internalType": "enum CommitmentVault.Status"
        },
        {
          "name": "outcome",
          "type": "uint8",
          "internalType": "enum CommitmentVault.Outcome"
        }
      ],
      "stateMutability": "view"
    },
    {
      "type": "function",
      "name": "confirmCompletion",
      "inputs": [
        {
          "name": "commitmentId",
          "type": "uint256",
          "internalType": "uint256"
        }
      ],
      "outputs": [],
      "stateMutability": "nonpayable"
    },
    {
      "type": "function",
      "name": "createCommitmentETH",
      "inputs": [
        {
          "name": "validator",
          "type": "address",
          "internalType": "address"
        },
        {
          "name": "charity",
          "type": "address",
          "internalType": "address"
        },
        {
          "name": "deadline",
          "type": "uint256",
          "internalType": "uint256"
        },
        {
          "name": "description",
          "type": "string",
          "internalType": "string"
        }
      ],
      "outputs": [
        {
          "name": "commitmentId",
          "type": "uint256",
          "internalType": "uint256"
        }
      ],
      "stateMutability": "payable"
    },
    {
      "type": "function",
      "name": "createCommitmentToken",
      "inputs": [
        {
          "name": "validator",
          "type": "address",
          "internalType": "address"
        },
        {
          "name": "charity",
          "type": "address",
          "internalType": "address"
        },
        {
          "name": "token",
          "type": "address",
          "internalType": "address"
        },
        {
          "name": "amount",
          "type": "uint256",
          "internalType": "uint256"
        },
        {
          "name": "deadline",
          "type": "uint256",
          "internalType": "uint256"
        },
        {
          "name": "description",
          "type": "string",
          "internalType": "string"
        }
      ],
      "outputs": [
        {
          "name": "commitmentId",
          "type": "uint256",
          "internalType": "uint256"
        }
      ],
      "stateMutability": "nonpayable"
    },
    {
      "type": "function",
      "name": "getCommitment",
      "inputs": [
        {
          "name": "commitmentId",
          "type": "uint256",
          "internalType": "uint256"
        }
      ],
      "outputs": [
        {
          "name": "",
          "type": "tuple",
          "internalType": "struct CommitmentVault.Commitment",
          "components": [
            {
              "name": "creator",
              "type": "address",
              "internalType": "address"
            },
            {
              "name": "validator",
              "type": "address",
              "internalType": "address"
            },
            {
              "name": "charity",
              "type": "address",
              "internalType": "address"
            },
            {
              "name": "token",
              "type": "address",
              "internalType": "address"
            },
            {
              "name": "amount",
              "type": "uint256",
              "internalType": "uint256"
            },
            {
              "name": "deadline",
              "type": "uint256",
              "internalType": "uint256"
            },
            {
              "name": "confirmationTime",
              "type": "uint256",
              "internalType": "uint256"
            },
            {
              "name": "validatorDeadline",
              "type": "uint256",
              "internalType": "uint256"
            },
            {
              "name": "description",
              "type": "string",
              "internalType": "string"
            },
            {
              "name": "status",
              "type": "uint8",
              "internalType": "enum CommitmentVault.Status"
            },
            {
              "name": "outcome",
              "type": "uint8",
              "internalType": "enum CommitmentVault.Outcome"
            }
          ]
        }
      ],
      "stateMutability": "view"
    },
    {
      "type": "function",
      "name": "getUserCommitments",
      "inputs": [
        {
          "name": "user",
          "type": "address",
          "internalType": "address"
        }
      ],
      "outputs": [
        {
          "name": "",
          "type": "uint256[]",
          "internalType": "uint256[]"
        }
      ],
      "stateMutability": "view"
    },
    {
      "type": "function",
      "name": "getValidatorCommitments",
      "inputs": [
        {
          "name": "validator",
          "type": "address",
          "internalType": "address"
        }
      ],
      "outputs": [
        {
          "name": "",
          "type": "uint256[]",
          "internalType": "uint256[]"
        }
      ],
      "stateMutability": "view"
    },
    {
      "type": "function",
      "name": "reject",
      "inputs": [
        {
          "name": "commitmentId",
          "type": "uint256",
          "internalType": "uint256"
        }
      ],
      "outputs": [],
      "stateMutability": "nonpayable"
    },
    {
      "type": "function",
      "name": "resolveExpired",
      "inputs": [
        {
          "name": "commitmentId",
          "type": "uint256",
          "internalType": "uint256"
        }
      ],
      "outputs": [],
      "stateMutability": "nonpayable"
    },
    {
      "type": "function",
      "name": "userCommitments",
      "inputs": [
        {
          "name": "",
          "type": "address",
          "internalType": "address"
        },
        {
          "name": "",
          "type": "uint256",
          "internalType": "uint256"
        }
      ],
      "outputs": [
        {
          "name": "",
          "type": "uint256",
          "internalType": "uint256"
        }
      ],
      "stateMutability": "view"
    },
    {
      "type": "function",
      "name": "validatorCommitments",
      "inputs": [
        {
          "name": "",
          "type": "address",
          "internalType": "address"
        },
        {
          "name": "",
          "type": "uint256",
          "internalType": "uint256"
        }
      ],
      "outputs": [
        {
          "name": "",
          "type": "uint256",
          "internalType": "uint256"
        }
      ],
      "stateMutability": "view"
    },
    {
      "type": "event",
      "name": "CommitmentConfirmed",
      "inputs": [
        {
          "name": "commitmentId",
          "type": "uint256",
          "indexed": true,
          "internalType": "uint256"
        },
        {
          "name": "creator",
          "type": "address",
          "indexed": true,
          "internalType": "address"
        },
        {
          "name": "validatorDeadline",
          "type": "uint256",
          "indexed": false,
          "internalType": "uint256"
        }
      ],
      "anonymous": false
    },
    {
      "type": "event",
      "name": "CommitmentCreated",
      "inputs": [
        {
          "name": "commitmentId",
          "type": "uint256",
          "indexed": true,
          "internalType": "uint256"
        },
        {
          "name": "creator",
          "type": "address",
          "indexed": true,
          "internalType": "address"
        },
        {
          "name": "validator",
          "type": "address",
          "indexed": true,
          "internalType": "address"
        },
        {
          "name": "charity",
          "type": "address",
          "indexed": false,
          "internalType": "address"
        },
        {
          "name": "token",
          "type": "address",
          "indexed": false,
          "internalType": "address"
        },
        {
          "name": "amount",
          "type": "uint256",
          "indexed": false,
          "internalType": "uint256"
        },
        {
          "name": "deadline",
          "type": "uint256",
          "indexed": false,
          "internalType": "uint256"
        },
        {
          "name": "description",
          "type": "string",
          "indexed": false,
          "internalType": "string"
        }
      ],
      "anonymous": false
    },
    {
      "type": "event",
      "name": "CommitmentResolved",
      "inputs": [
        {
          "name": "commitmentId",
          "type": "uint256",
          "indexed": true,
          "internalType": "uint256"
        },
        {
          "name": "outcome",
          "type": "uint8",
          "indexed": false,
          "internalType": "enum CommitmentVault.Outcome"
        },
        {
          "name": "recipient",
          "type": "address",
          "indexed": false,
          "internalType": "address"
        },
        {
          "name": "amount",
          "type": "uint256",
          "indexed": false,
          "internalType": "uint256"
        }
      ],
      "anonymous": false
    },
    {
      "type": "error",
      "name": "DeadlineNotPassed",
      "inputs": []
    },
    {
      "type": "error",
      "name": "DeadlinePassed",
      "inputs": []
    },
    {
      "type": "error",
      "name": "IncorrectETHAmount",
      "inputs": []
    },
    {
      "type": "error",
      "name": "InvalidAmount",
      "inputs": []
    },
    {
      "type": "error",
      "name": "InvalidCharity",
      "inputs": []
    },
    {
      "type": "error",
      "name": "InvalidCommitmentId",
      "inputs": []
    },
    {
      "type": "error",
      "name": "InvalidDeadline",
      "inputs": []
    },
    {
      "type": "error",
      "name": "InvalidValidator",
      "inputs": []
    },
    {
      "type": "error",
      "name": "NotCreator",
      "inputs": []
    },
    {
      "type": "error",
      "name": "NotValidator",
      "inputs": []
    },
    {
      "type": "error",
      "name": "TransferFailed",
      "inputs": []
    },
    {
      "type": "error",
      "name": "ValidatorWindowNotPassed",
      "inputs": []
    },
    {
      "type": "error",
      "name": "WrongStatus",
      "inputs": []
    }
  ],
  "bytecode": {
    "object": "0x6080604052348015600e575f5ffd5b506131c28061001c5f395ff3fe6080604052600436106100e7575f3560e01c806369bcdb7d1161008957806396c7c6511161005857806396c7c651146103325780639a5468481461036e578063b759f954146103aa578063b8adaa11146103d2576100e7565b806369bcdb7d14610262578063746038291461029e5780638e6ed300146102da57806394aeb6131461030a576100e7565b806331091d7a116100c557806331091d7a1461017b57806349ce8997146101b757806353531cd9146101fd5780636339372d1461023a576100e7565b80630a25b303146100eb5780630aeba53f1461012757806323e281cf14610151575b5f5ffd5b3480156100f6575f5ffd5b50610111600480360381019061010c9190612539565b6103fa565b60405161011e9190612586565b60405180910390f35b348015610132575f5ffd5b5061013b610425565b6040516101489190612586565b60405180910390f35b34801561015c575f5ffd5b5061016561042c565b6040516101729190612586565b60405180910390f35b348015610186575f5ffd5b506101a1600480360381019061019c919061259f565b610431565b6040516101ae9190612681565b60405180910390f35b3480156101c2575f5ffd5b506101dd60048036038101906101d891906126a1565b6104c4565b6040516101f49b9a99989796959493929190612804565b60405180910390f35b348015610208575f5ffd5b50610223600480360381019061021e91906126a1565b610635565b6040516102319291906128e9565b60405180910390f35b348015610245575f5ffd5b50610260600480360381019061025b91906126a1565b610798565b005b34801561026d575f5ffd5b50610288600480360381019061028391906126a1565b610a58565b6040516102959190612a71565b60405180910390f35b3480156102a9575f5ffd5b506102c460048036038101906102bf9190612af2565b610d4b565b6040516102d19190612586565b60405180910390f35b6102f460048036038101906102ef9190612b9c565b611403565b6040516103019190612586565b60405180910390f35b348015610315575f5ffd5b50610330600480360381019061032b91906126a1565b61199c565b005b34801561033d575f5ffd5b506103586004803603810190610353919061259f565b611bf2565b6040516103659190612681565b60405180910390f35b348015610379575f5ffd5b50610394600480360381019061038f9190612539565b611c85565b6040516103a19190612586565b60405180910390f35b3480156103b5575f5ffd5b506103d060048036038101906103cb91906126a1565b611cb0565b005b3480156103dd575f5ffd5b506103f860048036038101906103f391906126a1565b611f79565b005b6003602052815f5260405f208181548110610413575f80fd5b905f5260205f20015f91509150505481565b6201518081565b5f5481565b606060025f8373ffffffffffffffffffffffffffffffffffffffff1673ffffffffffffffffffffffffffffffffffffffff1681526020019081526020015f208054806020026020016040519081016040528092919081815260200182805480156104b857602002820191905f5260205f20905b8154815260200190600101908083116104a4575b50505050509050919050565b6001602052805f5260405f205f91509050805f015f9054906101000a900473ffffffffffffffffffffffffffffffffffffffff1690806001015f9054906101000a900473ffffffffffffffffffffffffffffffffffffffff1690806002015f9054906101000a900473ffffffffffffffffffffffffffffffffffffffff1690806003015f9054906101000a900473ffffffffffffffffffffffffffffffffffffffff169080600401549080600501549080600601549080600701549080600801805461058f90612c4d565b80601f01602080910402602001604051908101604052809291908181526020018280546105bb90612c4d565b80156106065780601f106105dd57610100808354040283529160200191610606565b820191905f5260205f20905b8154815290600101906020018083116105e957829003601f168201915b505050505090806009015f9054906101000a900460ff16908060090160019054906101000a900460ff1690508b565b5f5f825f81148061064657505f5481115b1561067d576040517fa15f6d8f00000000000000000000000000000000000000000000000000000000815260040160405180910390fd5b5f60015f8681526020019081526020015f2090506002808111156106a4576106a361274b565b5b816009015f9054906101000a900460ff1660028111156106c7576106c661274b565b5b036106d8575f5f9350935050610792565b5f60028111156106eb576106ea61274b565b5b816009015f9054906101000a900460ff16600281111561070e5761070d61274b565b5b14801561071e5750806005015442115b15610730576001809350935050610792565b600160028111156107445761074361274b565b5b816009015f9054906101000a900460ff1660028111156107675761076661274b565b5b1480156107775750806007015442115b1561078a57600160029350935050610792565b5f5f93509350505b50915091565b805f8114806107a757505f5481115b156107de576040517fa15f6d8f00000000000000000000000000000000000000000000000000000000815260040160405180910390fd5b5f60015f8481526020019081526020015f2090506002808111156108055761080461274b565b5b816009015f9054906101000a900460ff1660028111156108285761082761274b565b5b0361085f576040517f8e78f0cb00000000000000000000000000000000000000000000000000000000815260040160405180910390fd5b5f5f90505f60028111156108765761087561274b565b5b826009015f9054906101000a900460ff1660028111156108995761089861274b565b5b1480156108a95750816005015442115b156108b75760019050610909565b600160028111156108cb576108ca61274b565b5b826009015f9054906101000a900460ff1660028111156108ee576108ed61274b565b5b1480156108fe5750816007015442115b1561090857600190505b5b80610940576040517f2eb3543000000000000000000000000000000000000000000000000000000000815260040160405180910390fd5b6002826009015f6101000a81548160ff021916908360028111156109675761096661274b565b5b021790555060028260090160016101000a81548160ff021916908360028111156109945761099361274b565b5b02179055506109ee826003015f9054906101000a900473ffffffffffffffffffffffffffffffffffffffff16836002015f9054906101000a900473ffffffffffffffffffffffffffffffffffffffff168460040154612244565b837fe58c54775ed51ffda3f32734664e61aef87a6319c5c94e7f2c42c11f267bcb7b6002846002015f9054906101000a900473ffffffffffffffffffffffffffffffffffffffff168560040154604051610a4a93929190612c7d565b60405180910390a250505050565b610a606123d8565b815f811480610a6f57505f5481115b15610aa6576040517fa15f6d8f00000000000000000000000000000000000000000000000000000000815260040160405180910390fd5b60015f8481526020019081526020015f20604051806101600160405290815f82015f9054906101000a900473ffffffffffffffffffffffffffffffffffffffff1673ffffffffffffffffffffffffffffffffffffffff1673ffffffffffffffffffffffffffffffffffffffff168152602001600182015f9054906101000a900473ffffffffffffffffffffffffffffffffffffffff1673ffffffffffffffffffffffffffffffffffffffff1673ffffffffffffffffffffffffffffffffffffffff168152602001600282015f9054906101000a900473ffffffffffffffffffffffffffffffffffffffff1673ffffffffffffffffffffffffffffffffffffffff1673ffffffffffffffffffffffffffffffffffffffff168152602001600382015f9054906101000a900473ffffffffffffffffffffffffffffffffffffffff1673ffffffffffffffffffffffffffffffffffffffff1673ffffffffffffffffffffffffffffffffffffffff16815260200160048201548152602001600582015481526020016006820154815260200160078201548152602001600882018054610c4e90612c4d565b80601f0160208091040260200160405190810160405280929190818152602001828054610c7a90612c4d565b8015610cc55780601f10610c9c57610100808354040283529160200191610cc5565b820191905f5260205f20905b815481529060010190602001808311610ca857829003601f168201915b50505050508152602001600982015f9054906101000a900460ff166002811115610cf257610cf161274b565b5b6002811115610d0457610d0361274b565b5b81526020016009820160019054906101000a900460ff166002811115610d2d57610d2c61274b565b5b6002811115610d3f57610d3e61274b565b5b81525050915050919050565b5f5f73ffffffffffffffffffffffffffffffffffffffff168873ffffffffffffffffffffffffffffffffffffffff161480610db157503373ffffffffffffffffffffffffffffffffffffffff168873ffffffffffffffffffffffffffffffffffffffff16145b15610de8576040517f682a6e7c00000000000000000000000000000000000000000000000000000000815260040160405180910390fd5b5f73ffffffffffffffffffffffffffffffffffffffff168773ffffffffffffffffffffffffffffffffffffffff1603610e4d576040517f524e0a1e00000000000000000000000000000000000000000000000000000000815260040160405180910390fd5b5f73ffffffffffffffffffffffffffffffffffffffff168673ffffffffffffffffffffffffffffffffffffffff1603610eb2576040517f2c5211c600000000000000000000000000000000000000000000000000000000815260040160405180910390fd5b5f8503610eeb576040517f2c5211c600000000000000000000000000000000000000000000000000000000815260040160405180910390fd5b428411610f24576040517f769d11e400000000000000000000000000000000000000000000000000000000815260040160405180910390fd5b5f8673ffffffffffffffffffffffffffffffffffffffff166323b872dd3330896040518463ffffffff1660e01b8152600401610f6293929190612cb2565b6020604051808303815f875af1158015610f7e573d5f5f3e3d5ffd5b505050506040513d601f19601f82011682018060405250810190610fa29190612d11565b905080610fdb576040517f90b8ec1800000000000000000000000000000000000000000000000000000000815260040160405180910390fd5b5f5f8154610fe890612d69565b91905081905591506040518061016001604052803373ffffffffffffffffffffffffffffffffffffffff1681526020018a73ffffffffffffffffffffffffffffffffffffffff1681526020018973ffffffffffffffffffffffffffffffffffffffff1681526020018873ffffffffffffffffffffffffffffffffffffffff1681526020018781526020018681526020015f81526020015f815260200185858080601f0160208091040260200160405190810160405280939291908181526020018383808284375f81840152601f19601f8201169050808301925050505050505081526020015f60028111156110e0576110df61274b565b5b81526020015f60028111156110f8576110f761274b565b5b81525060015f8481526020019081526020015f205f820151815f015f6101000a81548173ffffffffffffffffffffffffffffffffffffffff021916908373ffffffffffffffffffffffffffffffffffffffff1602179055506020820151816001015f6101000a81548173ffffffffffffffffffffffffffffffffffffffff021916908373ffffffffffffffffffffffffffffffffffffffff1602179055506040820151816002015f6101000a81548173ffffffffffffffffffffffffffffffffffffffff021916908373ffffffffffffffffffffffffffffffffffffffff1602179055506060820151816003015f6101000a81548173ffffffffffffffffffffffffffffffffffffffff021916908373ffffffffffffffffffffffffffffffffffffffff1602179055506080820151816004015560a0820151816005015560c0820151816006015560e082015181600701556101008201518160080190816112609190612f8e565b50610120820151816009015f6101000a81548160ff0219169083600281111561128c5761128b61274b565b5b02179055506101408201518160090160016101000a81548160ff021916908360028111156112bd576112bc61274b565b5b021790555090505060025f3373ffffffffffffffffffffffffffffffffffffffff1673ffffffffffffffffffffffffffffffffffffffff1681526020019081526020015f2082908060018154018082558091505060019003905f5260205f20015f909190919091505560035f8a73ffffffffffffffffffffffffffffffffffffffff1673ffffffffffffffffffffffffffffffffffffffff1681526020019081526020015f2082908060018154018082558091505060019003905f5260205f20015f90919091909150558873ffffffffffffffffffffffffffffffffffffffff163373ffffffffffffffffffffffffffffffffffffffff16837fbcb53486ffc2afe9e4d4e270ee4715f4b03a1a1dd12039ac64c17735853674ba8b8b8b8b8b8b6040516113ef96959493929190613097565b60405180910390a450979650505050505050565b5f5f73ffffffffffffffffffffffffffffffffffffffff168673ffffffffffffffffffffffffffffffffffffffff16148061146957503373ffffffffffffffffffffffffffffffffffffffff168673ffffffffffffffffffffffffffffffffffffffff16145b156114a0576040517f682a6e7c00000000000000000000000000000000000000000000000000000000815260040160405180910390fd5b5f73ffffffffffffffffffffffffffffffffffffffff168573ffffffffffffffffffffffffffffffffffffffff1603611505576040517f524e0a1e00000000000000000000000000000000000000000000000000000000815260040160405180910390fd5b5f340361153e576040517f2c5211c600000000000000000000000000000000000000000000000000000000815260040160405180910390fd5b428411611577576040517f769d11e400000000000000000000000000000000000000000000000000000000815260040160405180910390fd5b5f5f815461158490612d69565b91905081905590506040518061016001604052803373ffffffffffffffffffffffffffffffffffffffff1681526020018773ffffffffffffffffffffffffffffffffffffffff1681526020018673ffffffffffffffffffffffffffffffffffffffff1681526020015f73ffffffffffffffffffffffffffffffffffffffff1681526020013481526020018581526020015f81526020015f815260200184848080601f0160208091040260200160405190810160405280939291908181526020018383808284375f81840152601f19601f8201169050808301925050505050505081526020015f600281111561167c5761167b61274b565b5b81526020015f60028111156116945761169361274b565b5b81525060015f8381526020019081526020015f205f820151815f015f6101000a81548173ffffffffffffffffffffffffffffffffffffffff021916908373ffffffffffffffffffffffffffffffffffffffff1602179055506020820151816001015f6101000a81548173ffffffffffffffffffffffffffffffffffffffff021916908373ffffffffffffffffffffffffffffffffffffffff1602179055506040820151816002015f6101000a81548173ffffffffffffffffffffffffffffffffffffffff021916908373ffffffffffffffffffffffffffffffffffffffff1602179055506060820151816003015f6101000a81548173ffffffffffffffffffffffffffffffffffffffff021916908373ffffffffffffffffffffffffffffffffffffffff1602179055506080820151816004015560a0820151816005015560c0820151816006015560e082015181600701556101008201518160080190816117fc9190612f8e565b50610120820151816009015f6101000a81548160ff021916908360028111156118285761182761274b565b5b02179055506101408201518160090160016101000a81548160ff021916908360028111156118595761185861274b565b5b021790555090505060025f3373ffffffffffffffffffffffffffffffffffffffff1673ffffffffffffffffffffffffffffffffffffffff1681526020019081526020015f2081908060018154018082558091505060019003905f5260205f20015f909190919091505560035f8773ffffffffffffffffffffffffffffffffffffffff1673ffffffffffffffffffffffffffffffffffffffff1681526020019081526020015f2081908060018154018082558091505060019003905f5260205f20015f90919091909150558573ffffffffffffffffffffffffffffffffffffffff163373ffffffffffffffffffffffffffffffffffffffff16827fbcb53486ffc2afe9e4d4e270ee4715f4b03a1a1dd12039ac64c17735853674ba885f348a8a8a60405161198b96959493929190613097565b60405180910390a495945050505050565b805f8114806119ab57505f5481115b156119e2576040517fa15f6d8f00000000000000000000000000000000000000000000000000000000815260040160405180910390fd5b813373ffffffffffffffffffffffffffffffffffffffff1660015f8381526020019081526020015f205f015f9054906101000a900473ffffffffffffffffffffffffffffffffffffffff1673ffffffffffffffffffffffffffffffffffffffff1614611a7a576040517f93687c0b00000000000000000000000000000000000000000000000000000000815260040160405180910390fd5b825f806002811115611a8f57611a8e61274b565b5b60015f8481526020019081526020015f206009015f9054906101000a900460ff166002811115611ac257611ac161274b565b5b14611af9576040517f8e78f0cb00000000000000000000000000000000000000000000000000000000815260040160405180910390fd5b5f60015f8781526020019081526020015f2090508060050154421115611b4b576040517f70f65caa00000000000000000000000000000000000000000000000000000000815260040160405180910390fd5b6001816009015f6101000a81548160ff02191690836002811115611b7257611b7161274b565b5b02179055504281600601819055506201518042611b8f91906130f1565b81600701819055503373ffffffffffffffffffffffffffffffffffffffff16867f8960c8f9cbecda4834d897b8b833b99c7ebf7ff1fb4914f9f0f45147564593338360070154604051611be29190612586565b60405180910390a3505050505050565b606060035f8373ffffffffffffffffffffffffffffffffffffffff1673ffffffffffffffffffffffffffffffffffffffff1681526020019081526020015f20805480602002602001604051908101604052809291908181526020018280548015611c7957602002820191905f5260205f20905b815481526020019060010190808311611c65575b50505050509050919050565b6002602052815f5260405f208181548110611c9e575f80fd5b905f5260205f20015f91509150505481565b805f811480611cbf57505f5481115b15611cf6576040517fa15f6d8f00000000000000000000000000000000000000000000000000000000815260040160405180910390fd5b813373ffffffffffffffffffffffffffffffffffffffff1660015f8381526020019081526020015f206001015f9054906101000a900473ffffffffffffffffffffffffffffffffffffffff1673ffffffffffffffffffffffffffffffffffffffff1614611d8f576040517f2ec5b44900000000000000000000000000000000000000000000000000000000815260040160405180910390fd5b826001806002811115611da557611da461274b565b5b60015f8481526020019081526020015f206009015f9054906101000a900460ff166002811115611dd857611dd761274b565b5b14611e0f576040517f8e78f0cb00000000000000000000000000000000000000000000000000000000815260040160405180910390fd5b5f60015f8781526020019081526020015f2090508060070154421115611e61576040517f70f65caa00000000000000000000000000000000000000000000000000000000815260040160405180910390fd5b6002816009015f6101000a81548160ff02191690836002811115611e8857611e8761274b565b5b021790555060018160090160016101000a81548160ff02191690836002811115611eb557611eb461274b565b5b0217905550611f0e816003015f9054906101000a900473ffffffffffffffffffffffffffffffffffffffff16825f015f9054906101000a900473ffffffffffffffffffffffffffffffffffffffff168360040154612244565b857fe58c54775ed51ffda3f32734664e61aef87a6319c5c94e7f2c42c11f267bcb7b6001835f015f9054906101000a900473ffffffffffffffffffffffffffffffffffffffff168460040154604051611f6993929190612c7d565b60405180910390a2505050505050565b805f811480611f8857505f5481115b15611fbf576040517fa15f6d8f00000000000000000000000000000000000000000000000000000000815260040160405180910390fd5b813373ffffffffffffffffffffffffffffffffffffffff1660015f8381526020019081526020015f206001015f9054906101000a900473ffffffffffffffffffffffffffffffffffffffff1673ffffffffffffffffffffffffffffffffffffffff1614612058576040517f2ec5b44900000000000000000000000000000000000000000000000000000000815260040160405180910390fd5b82600180600281111561206e5761206d61274b565b5b60015f8481526020019081526020015f206009015f9054906101000a900460ff1660028111156120a1576120a061274b565b5b146120d8576040517f8e78f0cb00000000000000000000000000000000000000000000000000000000815260040160405180910390fd5b5f60015f8781526020019081526020015f209050806007015442111561212a576040517f70f65caa00000000000000000000000000000000000000000000000000000000815260040160405180910390fd5b6002816009015f6101000a81548160ff021916908360028111156121515761215061274b565b5b021790555060028160090160016101000a81548160ff0219169083600281111561217e5761217d61274b565b5b02179055506121d8816003015f9054906101000a900473ffffffffffffffffffffffffffffffffffffffff16826002015f9054906101000a900473ffffffffffffffffffffffffffffffffffffffff168360040154612244565b857fe58c54775ed51ffda3f32734664e61aef87a6319c5c94e7f2c42c11f267bcb7b6002836002015f9054906101000a900473ffffffffffffffffffffffffffffffffffffffff16846004015460405161223493929190612c7d565b60405180910390a2505050505050565b5f73ffffffffffffffffffffffffffffffffffffffff168373ffffffffffffffffffffffffffffffffffffffff160361231c575f8273ffffffffffffffffffffffffffffffffffffffff168260405161229c90613151565b5f6040518083038185875af1925050503d805f81146122d6576040519150601f19603f3d011682016040523d82523d5f602084013e6122db565b606091505b5050905080612316576040517f90b8ec1800000000000000000000000000000000000000000000000000000000815260040160405180910390fd5b506123d3565b5f8373ffffffffffffffffffffffffffffffffffffffff1663a9059cbb84846040518363ffffffff1660e01b8152600401612358929190613165565b6020604051808303815f875af1158015612374573d5f5f3e3d5ffd5b505050506040513d601f19601f820116820180604052508101906123989190612d11565b9050806123d1576040517f90b8ec1800000000000000000000000000000000000000000000000000000000815260040160405180910390fd5b505b505050565b6040518061016001604052805f73ffffffffffffffffffffffffffffffffffffffff1681526020015f73ffffffffffffffffffffffffffffffffffffffff1681526020015f73ffffffffffffffffffffffffffffffffffffffff1681526020015f73ffffffffffffffffffffffffffffffffffffffff1681526020015f81526020015f81526020015f81526020015f8152602001606081526020015f60028111156124865761248561274b565b5b81526020015f600281111561249e5761249d61274b565b5b81525090565b5f5ffd5b5f5ffd5b5f73ffffffffffffffffffffffffffffffffffffffff82169050919050565b5f6124d5826124ac565b9050919050565b6124e5816124cb565b81146124ef575f5ffd5b50565b5f81359050612500816124dc565b92915050565b5f819050919050565b61251881612506565b8114612522575f5ffd5b50565b5f813590506125338161250f565b92915050565b5f5f6040838503121561254f5761254e6124a4565b5b5f61255c858286016124f2565b925050602061256d85828601612525565b9150509250929050565b61258081612506565b82525050565b5f6020820190506125995f830184612577565b92915050565b5f602082840312156125b4576125b36124a4565b5b5f6125c1848285016124f2565b91505092915050565b5f81519050919050565b5f82825260208201905092915050565b5f819050602082019050919050565b6125fc81612506565b82525050565b5f61260d83836125f3565b60208301905092915050565b5f602082019050919050565b5f61262f826125ca565b61263981856125d4565b9350612644836125e4565b805f5b8381101561267457815161265b8882612602565b975061266683612619565b925050600181019050612647565b5085935050505092915050565b5f6020820190508181035f8301526126998184612625565b905092915050565b5f602082840312156126b6576126b56124a4565b5b5f6126c384828501612525565b91505092915050565b6126d5816124cb565b82525050565b5f81519050919050565b5f82825260208201905092915050565b8281835e5f83830152505050565b5f601f19601f8301169050919050565b5f61271d826126db565b61272781856126e5565b93506127378185602086016126f5565b61274081612703565b840191505092915050565b7f4e487b71000000000000000000000000000000000000000000000000000000005f52602160045260245ffd5b600381106127895761278861274b565b5b50565b5f81905061279982612778565b919050565b5f6127a88261278c565b9050919050565b6127b88161279e565b82525050565b600381106127cf576127ce61274b565b5b50565b5f8190506127df826127be565b919050565b5f6127ee826127d2565b9050919050565b6127fe816127e4565b82525050565b5f610160820190506128185f83018e6126cc565b612825602083018d6126cc565b612832604083018c6126cc565b61283f606083018b6126cc565b61284c608083018a612577565b61285960a0830189612577565b61286660c0830188612577565b61287360e0830187612577565b8181036101008301526128868186612713565b90506128966101208301856127af565b6128a46101408301846127f5565b9c9b505050505050505050505050565b5f8115159050919050565b6128c8816128b4565b82525050565b5f60ff82169050919050565b6128e3816128ce565b82525050565b5f6040820190506128fc5f8301856128bf565b61290960208301846128da565b9392505050565b612919816124cb565b82525050565b5f82825260208201905092915050565b5f612939826126db565b612943818561291f565b93506129538185602086016126f5565b61295c81612703565b840191505092915050565b6129708161279e565b82525050565b61297f816127e4565b82525050565b5f61016083015f83015161299b5f860182612910565b5060208301516129ae6020860182612910565b5060408301516129c16040860182612910565b5060608301516129d46060860182612910565b5060808301516129e760808601826125f3565b5060a08301516129fa60a08601826125f3565b5060c0830151612a0d60c08601826125f3565b5060e0830151612a2060e08601826125f3565b50610100830151848203610100860152612a3a828261292f565b915050610120830151612a51610120860182612967565b50610140830151612a66610140860182612976565b508091505092915050565b5f6020820190508181035f830152612a898184612985565b905092915050565b5f5ffd5b5f5ffd5b5f5ffd5b5f5f83601f840112612ab257612ab1612a91565b5b8235905067ffffffffffffffff811115612acf57612ace612a95565b5b602083019150836001820283011115612aeb57612aea612a99565b5b9250929050565b5f5f5f5f5f5f5f60c0888a031215612b0d57612b0c6124a4565b5b5f612b1a8a828b016124f2565b9750506020612b2b8a828b016124f2565b9650506040612b3c8a828b016124f2565b9550506060612b4d8a828b01612525565b9450506080612b5e8a828b01612525565b93505060a088013567ffffffffffffffff811115612b7f57612b7e6124a8565b5b612b8b8a828b01612a9d565b925092505092959891949750929550565b5f5f5f5f5f60808688031215612bb557612bb46124a4565b5b5f612bc2888289016124f2565b9550506020612bd3888289016124f2565b9450506040612be488828901612525565b935050606086013567ffffffffffffffff811115612c0557612c046124a8565b5b612c1188828901612a9d565b92509250509295509295909350565b7f4e487b71000000000000000000000000000000000000000000000000000000005f52602260045260245ffd5b5f6002820490506001821680612c6457607f821691505b602082108103612c7757612c76612c20565b5b50919050565b5f606082019050612c905f8301866127f5565b612c9d60208301856126cc565b612caa6040830184612577565b949350505050565b5f606082019050612cc55f8301866126cc565b612cd260208301856126cc565b612cdf6040830184612577565b949350505050565b612cf0816128b4565b8114612cfa575f5ffd5b50565b5f81519050612d0b81612ce7565b92915050565b5f60208284031215612d2657612d256124a4565b5b5f612d3384828501612cfd565b91505092915050565b7f4e487b71000000000000000000000000000000000000000000000000000000005f52601160045260245ffd5b5f612d7382612506565b91507fffffffffffffffffffffffffffffffffffffffffffffffffffffffffffffffff8203612da557612da4612d3c565b5b600182019050919050565b7f4e487b71000000000000000000000000000000000000000000000000000000005f52604160045260245ffd5b5f819050815f5260205f209050919050565b5f6020601f8301049050919050565b5f82821b905092915050565b5f60088302612e397fffffffffffffffffffffffffffffffffffffffffffffffffffffffffffffffff82612dfe565b612e438683612dfe565b95508019841693508086168417925050509392505050565b5f819050919050565b5f612e7e612e79612e7484612506565b612e5b565b612506565b9050919050565b5f819050919050565b612e9783612e64565b612eab612ea382612e85565b848454612e0a565b825550505050565b5f5f905090565b612ec2612eb3565b612ecd818484612e8e565b505050565b5f5b82811015612ef357612ee85f828401612eba565b600181019050612ed4565b505050565b601f821115612f465782821115612f4557612f1281612ddd565b612f1b83612def565b612f2485612def565b6020861015612f31575f90505b808301612f4082840382612ed2565b505050505b5b505050565b5f82821c905092915050565b5f612f665f1984600802612f4b565b1980831691505092915050565b5f612f7e8383612f57565b9150826002028217905092915050565b612f97826126db565b67ffffffffffffffff811115612fb057612faf612db0565b5b612fba8254612c4d565b612fc5828285612ef8565b5f60209050601f831160018114612ff6575f8415612fe4578287015190505b612fee8582612f73565b865550613055565b601f19841661300486612ddd565b5f5b8281101561302b57848901518255600182019150602085019450602081019050613006565b868310156130485784890151613044601f891682612f57565b8355505b6001600288020188555050505b505050505050565b828183375f83830152505050565b5f61307683856126e5565b935061308383858461305d565b61308c83612703565b840190509392505050565b5f60a0820190506130aa5f8301896126cc565b6130b760208301886126cc565b6130c46040830187612577565b6130d16060830186612577565b81810360808301526130e481848661306b565b9050979650505050505050565b5f6130fb82612506565b915061310683612506565b925082820190508082111561311e5761311d612d3c565b5b92915050565b5f81905092915050565b50565b5f61313c5f83613124565b91506131478261312e565b5f82019050919050565b5f61315b82613131565b9150819050919050565b5f6040820190506131785f8301856126cc565b6131856020830184612577565b939250505056fea2646970667358221220defa5135cf5375e40a6b903a62ce5940a7d9aa5e225c6340a0927c3fd4ce6d8364736f6c63430008210033",
    "linkReferences": {}
  },
  "methodIdentifiers": {
    "VALIDATOR_WINDOW()": "0aeba53f",
    "approve(uint256)": "b759f954",
    "canResolveExpired(uint256)": "53531cd9",
    "commitmentCounter()": "23e281cf",
    "commitments(uint256)": "49ce8997",
    "confirmCompletion(uint256)": "94aeb613",
    "createCommitmentETH(address,address,uint256,string)": "8e6ed300",
    "createCommitmentToken(address,address,address,uint256,uint256,string)": "74603829",
    "getCommitment(uint256)": "69bcdb7d",
    "getUserCommitments(address)": "31091d7a",
    "getValidatorCommitments(address)": "96c7c651",
    "reject(uint256)": "b8adaa11",
    "resolveExpired(uint256)": "6339372d",
    "userCommitments(address,uint256)": "9a546848",
    "validatorCommitments(address,uint256)": "0a25b303"
  },
  "id": 22
}