{
  "abi": [
    {
      "type": "function",
      "name": "CLAIM_COOLDOWN",
      "inputs": [],
      "outputs": [
        {
          "name": "",
          "type": "uint256",
          "internalType": "uint256"
        }
      ],
      "stateMutability": "view"
    },
    {
      "type": "function",
      "name": "FAUCET_AMOUNT",
      "inputs": [],
      "outputs": [
        {
          "name": "",
          "type": "uint256",
          "internalType": "uint256"
        }
      ],
      "stateMutability": "view"
    },
    {
      "type": "function",
      "name": "allowance",
      "inputs": [
        {
          "name": "",
          "type": "address",
          "internalType": "address"
        },
        {
          "name": "",
          "type": "address",
          "internalType": "address"
        }
      ],
      "outputs": [
        {
          "name": "",
          "type": "uint256",
          "internalType": "uint256"
        }
      ],
      "stateMutability": "view"
    },
    {
      "type": "function",
      "name": "approve",
      "inputs": [
        {
          "name": "spender",
          "type": "address",
          "internalType": "address"
        },
        {
          "name": "amount",
          "type": "uint256",
          "internalType": "uint256"
        }
      ],
      "outputs": [
        {
          "name": "",
          "type": "bool",
          "internalType": "bool"
        }
      ],
      "stateMutability": "nonpayable"
    },
    {
      "type": "function",
      "name": "balanceOf",
      "inputs": [
        {
          "name": "",
          "type": "address",
          "internalType": "address"
        }
      ],
      "outputs": [
        {
          "name": "",
          "type": "uint256",
          "internalType": "uint256"
        }
      ],
      "stateMutability": "view"
    },
    {
      "type": "function",
      "name": "decimals",
      "inputs": [],
      "outputs": [
        {
          "name": "",
          "type": "uint8",
          "internalType": "uint8"
        }
      ],
      "stateMutability": "view"
    },
    {
      "type": "function",
      "name": "faucet",
      "inputs": [],
      "outputs": [],
      "stateMutability": "nonpayable"
    },
    {
      "type": "function",
      "name": "lastClaim",
      "inputs": [
        {
          "name": "",
          "type": "address",
          "internalType": "address"
        }
      ],
      "outputs": [
        {
          "name": "",
          "type": "uint256",
          "internalType": "uint256"
        }
      ],
      "stateMutability": "view"
    },
    {
      "type": "function",
      "name": "mint",
      "inputs": [
        {
          "name": "to",
          "type": "address",
          "internalType": "address"
        },
        {
          "name": "amount",
          "type": "uint256",
          "internalType": "uint256"
        }
      ],
      "outputs": [],
      "stateMutability": "nonpayable"
    },
    {
      "type": "function",
      "name": "name",
      "inputs": [],
      "outputs": [
        {
          "name": "",
          "type": "string",
          "internalType": "string"
        }
      ],
      "stateMutability": "view"
    },
    {
      "type": "function",
      "name": "symbol",
      "inputs": [],
      "outputs": [
        {
          "name": "",
          "type": "string",
          "internalType": "string"
        }
      ],
      "stateMutability": "view"
    },
    {
      "type": "function",
      "name": "totalSupply",
      "inputs": [],
      "outputs": [
        {
          "name": "",
          "type": "uint256",
          "internalType": "uint256"
        }
      ],
      "stateMutability": "view"
    },
    {
      "type": "function",
      "name": "transfer",
      "inputs": [
        {
          "name": "to",
          "type": "address",
          "internalType": "address"
        },
        {
          "name": "amount",
          "type": "uint256",
          "internalType": "uint256"
        }
      ],
      "outputs": [
        {
          "name": "",
          "type": "bool",
          "internalType": "bool"
        }
      ],
      "stateMutability": "nonpayable"
    },
    {
      "type": "function",
      "name": "transferFrom",
      "inputs": [
        {
          "name": "from",
          "type": "address",
          "internalType": "address"
        },
        {
          "name": "to",
          "type": "address",
          "internalType": "address"
        },
        {
          "name": "amount",
          "type": "uint256",
          "internalType": "uint256"
        }
      ],
      "outputs": [
        {
          "name": "",
          "type": "bool",
          "internalType": "bool"
        }
      ],
      "stateMutability": "nonpayable"
    },
    {
      "type": "event",
      "name": "Approval",
      "inputs": [
        {
          "name": "owner",
          "type": "address",
          "indexed": true,
          "internalType": "address"
        },
        {
          "name": "spender",
          "type": "address",
          "indexed": true,
          "internalType": "address"
        },
        {
          "name": "value",
          "type": "uint256",
          "indexed": false,
          "internalType": "uint256"
        }
      ],
      "anonymous": false
    },
    {
      "type": "event",
      "name": "Transfer",
      "inputs": [
        {
          "name": "from",
          "type": "address",
          "indexed": true,
          "internalType": "address"
        },
        {
          "name": "to",
          "type": "address",
          "indexed": true,
          "internalType": "address"
        },
        {
          "name": "value",
          "type": "uint256",
          "indexed": false,
          "internalType": "uint256"
        }
      ],
      "anonymous": false
    },
    {
      "type": "error",
      "name": "ClaimCooldown",
      "inputs": []
    }
  ],
  "bytecode": {
    "object": "0x6080604052348015600e575f5ffd5b50610c3b8061001c5f395ff3fe608060405234801561000f575f5ffd5b50600436106100e8575f3560e01c80635c16e15e1161008a57806395d89b411161006457806395d89b411461025e578063a9059cbb1461027c578063dd62ed3e146102ac578063de5f72fd146102dc576100e8565b80635c16e15e146101e057806370a08231146102105780637669764014610240576100e8565b806323b872dd116100c657806323b872dd14610158578063313ce5671461018857806337c909ec146101a657806340c10f19146101c4576100e8565b806306fdde03146100ec578063095ea7b31461010a57806318160ddd1461013a575b5f5ffd5b6100f46102e6565b604051610101919061093b565b60405180910390f35b610124600480360381019061011f91906109ec565b61031f565b6040516101319190610a44565b60405180910390f35b61014261040c565b60405161014f9190610a6c565b60405180910390f35b610172600480360381019061016d9190610a85565b610411565b60405161017f9190610a44565b60405180910390f35b610190610553565b60405161019d9190610af0565b60405180910390f35b6101ae610558565b6040516101bb9190610a6c565b60405180910390f35b6101de60048036038101906101d991906109ec565b61055e565b005b6101fa60048036038101906101f59190610b09565b61056c565b6040516102079190610a6c565b60405180910390f35b61022a60048036038101906102259190610b09565b610581565b6040516102379190610a6c565b60405180910390f35b610248610596565b6040516102559190610a6c565b60405180910390f35b61026661059e565b604051610273919061093b565b60405180910390f35b610296600480360381019061029191906109ec565b6105d7565b6040516102a39190610a44565b60405180910390f35b6102c660048036038101906102c19190610b34565b6105eb565b6040516102d39190610a6c565b60405180910390f35b6102e461060b565b005b6040518060400160405280600981526020017f4d6f636b2055534443000000000000000000000000000000000000000000000081525081565b5f8160025f3373ffffffffffffffffffffffffffffffffffffffff1673ffffffffffffffffffffffffffffffffffffffff1681526020019081526020015f205f8573ffffffffffffffffffffffffffffffffffffffff1673ffffffffffffffffffffffffffffffffffffffff1681526020019081526020015f20819055508273ffffffffffffffffffffffffffffffffffffffff163373ffffffffffffffffffffffffffffffffffffffff167f8c5be1e5ebec7d5bd14f71427d1e84f3dd0314c0f7b2291e5b200ac8c7c3b925846040516103fa9190610a6c565b60405180910390a36001905092915050565b5f5481565b5f5f60025f8673ffffffffffffffffffffffffffffffffffffffff1673ffffffffffffffffffffffffffffffffffffffff1681526020019081526020015f205f3373ffffffffffffffffffffffffffffffffffffffff1673ffffffffffffffffffffffffffffffffffffffff1681526020019081526020015f205490507fffffffffffffffffffffffffffffffffffffffffffffffffffffffffffffffff811461053e5782816104c19190610b9f565b60025f8773ffffffffffffffffffffffffffffffffffffffff1673ffffffffffffffffffffffffffffffffffffffff1681526020019081526020015f205f3373ffffffffffffffffffffffffffffffffffffffff1673ffffffffffffffffffffffffffffffffffffffff1681526020019081526020015f20819055505b6105498585856106e1565b9150509392505050565b600681565b610e1081565b61056882826107f8565b5050565b6003602052805f5260405f205f915090505481565b6001602052805f5260405f205f915090505481565b633b9aca0081565b6040518060400160405280600881526020017f6d6f636b5553444300000000000000000000000000000000000000000000000081525081565b5f6105e33384846106e1565b905092915050565b6002602052815f5260405f20602052805f5260405f205f91509150505481565b610e1060035f3373ffffffffffffffffffffffffffffffffffffffff1673ffffffffffffffffffffffffffffffffffffffff1681526020019081526020015f20546106569190610bd2565b42101561068f576040517f074aa8f800000000000000000000000000000000000000000000000000000000815260040160405180910390fd5b4260035f3373ffffffffffffffffffffffffffffffffffffffff1673ffffffffffffffffffffffffffffffffffffffff1681526020019081526020015f20819055506106df33633b9aca006107f8565b565b5f8160015f8673ffffffffffffffffffffffffffffffffffffffff1673ffffffffffffffffffffffffffffffffffffffff1681526020019081526020015f205f82825461072e9190610b9f565b925050819055508160015f8573ffffffffffffffffffffffffffffffffffffffff1673ffffffffffffffffffffffffffffffffffffffff1681526020019081526020015f205f8282546107819190610bd2565b925050819055508273ffffffffffffffffffffffffffffffffffffffff168473ffffffffffffffffffffffffffffffffffffffff167fddf252ad1be2c89b69c2b068fc378daa952ba7f163c4a11628f55a4df523b3ef846040516107e59190610a6c565b60405180910390a3600190509392505050565b805f5f8282546108089190610bd2565b925050819055508060015f8473ffffffffffffffffffffffffffffffffffffffff1673ffffffffffffffffffffffffffffffffffffffff1681526020019081526020015f205f82825461085b9190610bd2565b925050819055508173ffffffffffffffffffffffffffffffffffffffff165f73ffffffffffffffffffffffffffffffffffffffff167fddf252ad1be2c89b69c2b068fc378daa952ba7f163c4a11628f55a4df523b3ef836040516108bf9190610a6c565b60405180910390a35050565b5f81519050919050565b5f82825260208201905092915050565b8281835e5f83830152505050565b5f601f19601f8301169050919050565b5f61090d826108cb565b61091781856108d5565b93506109278185602086016108e5565b610930816108f3565b840191505092915050565b5f6020820190508181035f8301526109538184610903565b905092915050565b5f5ffd5b5f73ffffffffffffffffffffffffffffffffffffffff82169050919050565b5f6109888261095f565b9050919050565b6109988161097e565b81146109a2575f5ffd5b50565b5f813590506109b38161098f565b92915050565b5f819050919050565b6109cb816109b9565b81146109d5575f5ffd5b50565b5f813590506109e6816109c2565b92915050565b5f5f60408385031215610a0257610a0161095b565b5b5f610a0f858286016109a5565b9250506020610a20858286016109d8565b9150509250929050565b5f8115159050919050565b610a3e81610a2a565b82525050565b5f602082019050610a575f830184610a35565b92915050565b610a66816109b9565b82525050565b5f602082019050610a7f5f830184610a5d565b92915050565b5f5f5f60608486031215610a9c57610a9b61095b565b5b5f610aa9868287016109a5565b9350506020610aba868287016109a5565b9250506040610acb868287016109d8565b9150509250925092565b5f60ff82169050919050565b610aea81610ad5565b82525050565b5f602082019050610b035f830184610ae1565b92915050565b5f60208284031215610b1e57610b1d61095b565b5b5f610b2b848285016109a5565b91505092915050565b5f5f60408385031215610b4a57610b4961095b565b5b5f610b57858286016109a5565b9250506020610b68858286016109a5565b9150509250929050565b7f4e487b71000000000000000000000000000000000000000000000000000000005f52601160045260245ffd5b5f610ba9826109b9565b9150610bb4836109b9565b9250828203905081811115610bcc57610bcb610b72565b5b92915050565b5f610bdc826109b9565b9150610be7836109b9565b9250828201905080821115610bff57610bfe610b72565b5b9291505056fea26469706673582212208cec71f624887d93685ff1d496b69bc9f4e421259889bcb8116538d759c7d81764736f6c63430008210033",
    "linkReferences": {}
  },
  "methodIdentifiers": {
    "CLAIM_COOLDOWN()": "37c909ec",
    "FAUCET_AMOUNT()": "76697640",
    "allowance(address,address)": "dd62ed3e",
    "approve(address,uint256)": "095ea7b3",
    "balanceOf(address)": "70a08231",
    "decimals()": "313ce567",
    "faucet()": "de5f72fd",
    "lastClaim(address)": "5c16e15e",
    "mint(address,uint256)": "40c10f19",
    "name()": "06fdde03",
    "symbol()": "95d89b41",
    "totalSupply()": "18160ddd",
    "transfer(address,uint256)": "a9059cbb",
    "transferFrom(address,address,uint256)": "23b872dd"
  },
  "id": 23
}